:100000000C942A000C9447000C9447000C94470071
:100010000C9447000C9447000C9447000C94400E3D
:100020000C9447000C9447000C9447000C94470034
:100030000C9447000C9447000C9447000C94470024
:100040000C9447000C9447000C9447000C94470014
:100050000C94470011241FBECFE5D8E0DEBFCDBF12
:1000600010E0A0E6B0E0E8E4F4E502C005900D92EF
:10007000A23DB107D9F717E0A2EDB0E001C01D9293
:10008000A932B107E1F70E94560B0C94222A0C9476
:100090000000DF93CF9300D0CDB7DEB789836A83AA
:1000A0008A81813009F06DC089818830A0F4ABE38A
:1000B000B0E0EBE3F0E08081482F8981282F30E029
:1000C00081E090E0022E02C0880F991F0A94E2F7A7
:1000D000842B8C93C8C089818830C8F08981803195
:1000E000B0F4A8E3B0E0E8E3F0E08081482F898134
:1000F000882F90E008979C0181E090E0022E02C0DA
:10010000880F991F0A94E2F7842B8C93ACC08981E5
:100110008031C8F089818831B0F4A5E3B0E0E5E32F
:10012000F0E08081482F8981882F90E040979C01E2
:1001300081E090E0022E02C0880F991F0A94E2F736
:10014000842B8C9390C08981883108F48CC089817C
:10015000803208F088C0A2E3B0E0E2E3F0E0808102
:10016000482F8981882F90E048979C0181E090E09A
:10017000022E02C0880F991F0A94E2F7842B8C93F9
:1001800072C08A81882309F06EC089818830A8F402
:10019000ABE3B0E0EBE3F0E08081482F8981282FCA
:1001A00030E081E090E0022E02C0880F991F0A948F
:1001B000E2F7809584238C9356C089818830D0F0F3
:1001C00089818031B8F4A8E3B0E0E8E3F0E0808111
:1001D000482F8981882F90E008979C0181E090E06A
:1001E000022E02C0880F991F0A94E2F7809584239B
:1001F0008C9339C089818031D0F089818831B8F4FD
:10020000A5E3B0E0E5E3F0E08081482F8981882F05
:1002100090E040979C0181E090E0022E02C0880FA0
:10022000991F0A94E2F7809584238C931CC08981DE
:100230008831C8F089818032B0F4A2E3B0E0E2E313
:10024000F0E08081482F8981882F90E048979C01B9
:1002500081E090E0022E02C0880F991F0A94E2F715
:10026000809584238C930F900F90CF91DF91089508
:10027000DF93CF9300D0CDB7DEB7898389818830F3
:1002800098F4E9E3F0E08081282F30E08981882F1D
:1002900090E0A90102C0559547958A95E2F7CA01F9
:1002A000582F51705A8350C089818830B8F08981A5
:1002B0008031A0F4E6E3F0E08081282F30E08981EE
:1002C000882F90E00897A90102C0559547958A9517
:1002D000E2F7CA01582F51705A8336C089818031A4
:1002E000B8F089818831A0F4E3E3F0E08081282F21
:1002F00030E08981882F90E04097A90102C0559590
:1003000047958A95E2F7CA01582F51705A831CC04D
:1003100089818831B8F089818032A0F4E0E3F0E08F
:100320008081282F30E08981882F90E04897A901AB
:1003300002C0559547958A95E2F7CA01582F51702A
:100340005A8302C088E08A838A810F900F90CF91F0
:10035000DF910895DF93CF9300D0CDB7DEB78983C7
:100360006A838A81882309F071C089818830A8F462
:10037000AAE3B0E0EAE3F0E08081482F8981282FEA
:1003800030E081E090E0022E02C0880F991F0A94AD
:10039000E2F7809584238C93C7C089818830D0F0A0
:1003A00089818031B8F4A7E3B0E0E7E3F0E0808131
:1003B000482F8981882F90E008979C0181E090E088
:1003C000022E02C0880F991F0A94E2F780958423B9
:1003D0008C93AAC089818031D0F089818831B8F4AA
:1003E000A4E3B0E0E4E3F0E08081482F8981882F26
:1003F00090E040979C0181E090E0022E02C0880FBF
:10040000991F0A94E2F7809584238C938DC089818B
:10041000883108F489C08981803208F085C0A1E361
:10042000B0E0E1E3F0E08081482F8981882F90E0FF
:1004300048979C0181E090E0022E02C0880F991F2E
:100440000A94E2F7809584238C936EC08A81813070
:1004500009F06AC089818830A0F4AAE3B0E0EAE339
:10046000F0E08081482F8981282F30E081E090E002
:10047000022E02C0880F991F0A94E2F7842B8C93F6
:1004800053C089818830C8F089818031B0F4A7E3F6
:10049000B0E0E7E3F0E08081482F8981882F90E089
:1004A00008979C0181E090E0022E02C0880F991FFE
:1004B0000A94E2F7842B8C9337C089818031C8F08D
:1004C00089818831B0F4A4E3B0E0E4E3F0E0808116
:1004D000482F8981882F90E040979C0181E090E02F
:1004E000022E02C0880F991F0A94E2F7842B8C9386
:1004F0001BC089818831C0F089818032A8F4A1E3D2
:10050000B0E0E1E3F0E08081482F8981882F90E01E
:1005100048979C0181E090E0022E02C0880F991F4D
:100520000A94E2F7842B8C930F900F90CF91DF9178
:100530000895DF93CF93CDB7DEB78AE060E00E94E5
:10054000AA0184E160E00E94AA01CF91DF910895A1
:10055000DF93CF930F92CDB7DEB78AE089838AE02D
:100560000E943801813019F482E0898307C084E158
:100570000E943801813011F481E0898389810F90D4
:10058000CF91DF910895EF92FF920F93DF93CF9376
:1005900000D0CDB7DEB79A83898383E061E040E085
:1005A0000E94C90E9093D7008093D60083E061E04B
:1005B00040E00E94C90E9093D9008093D80086E253
:1005C00093E020E630E0E2EDF0E0B90146E950E0EA
:1005D00020E030E005E07F010E94F91C88E393E011
:1005E0002AE630E0B90146E950E020E030E003E0DF
:1005F000EE24FF240E94F91C82EA93E02AE730E00F
:10060000B90146E950E020E030E001E0EE24FF24AB
:100610000E94F91C8AEB94E023E830E0B90146E936
:1006200050E020E030E002E0EE24FF240E94F91CBC
:100630008091D4009091D5000E94391F0F900F90A7
:10064000CF91DF910F91FF90EF900895DF93CF93BB
:1006500000D0CDB7DEB79A8389830E9499020E94A9
:1006600097088091D2009091D3000E94391FF5CF56
:10067000DF93CF9300D000D00F92CDB7DEB79D832C
:100680008C8381E08B831A8219828A81882379F492
:100690000E94A802813059F40E94A80289838A81AD
:1006A0008F5F8A838AE090E00E94171FEECF8A81D5
:1006B0008130E9F481E08B838091D6009091D7005E
:1006C0009E012D5F3F4FB90145E050E020E00E94C0
:1006D000550F04C084E690E00E94171F0E94A802F4
:1006E000982F89819817B1F382E08A83CECF8A81CF
:1006F0008230A1F41B828091D6009091D7009E0198
:100700002D5F3F4FB90145E050E020E00E94550FBA
:100710001A8284E690E00E94171FB7CF83E08B8394
:100720008091D6009091D7009E012D5F3F4FB90177
:1007300045E050E020E00E94550F84E690E00E94E2
:10074000171FA3CFDF93CF93CDB7DEB7C654D040EA
:100750000FB6F894DEBF0FBECDBF9FAB8EAB84E665
:1007600090E00E94171FCE01069699AF88AFE2E98C
:10077000F0E0FBAFEAAFF1E1FCAFEAADFBAD00802A
:100780008AAD9BAD01969BAF8AAFE8ADF9AD008213
:1007900088AD99AD019699AF88AF9CAD91509CAF53
:1007A000ECADEE2351F7CE0147969EAF8DAFE3EA55
:1007B000F0E02196FFAFEEAF2197FDE02296FFAF6C
:1007C00022972196EEADFFAD2197008021968EAD48
:1007D0009FAD2197019621969FAF8EAF2197EDADEA
:1007E000FEAD00828DAD9EAD01969EAF8DAF22967F
:1007F0009FAD2297915022969FAF22972296EFAD00
:100800002297EE23F1F6CE01849624969FAF8EAF09
:100810002497E0EBF0E02696FFAFEEAF2697F2E1EB
:100820002796FFAF27972696EEADFFAD269700805F
:1008300026968EAD9FAD2697019626969FAF8EAFDA
:1008400026972496EEADFFAD2497008224968EADB8
:100850009FAD2497019624969FAF8EAF249727963D
:100860009FAD2797915027969FAF27972796EFAD7B
:100870002797EE23C1F61B821A8219828091D60037
:100880009091D7009E012C5F3F4FB90144E650E0A4
:100890000E94AA108091D8009091D9009E012B5FF0
:1008A0003F4FB90144E650E00E94AA108B81882393
:1008B00019F08B818F5F8B838C81813069F49E016D
:1008C0002A5F3F4F81E060E0A9010E94FD0985E0B9
:1008D0008C8381E08A831AC08C818823B9F41A82C0
:1008E0008981813089F49E012C5D3F4F81E060E079
:1008F000A9010E94FD099E01295E3F4F80E060E052
:10090000A9010E94FD0902C00E94160A8D81823051
:1009100089F49E01295E3F4F80E060E0A9010E94BA
:10092000FD098B81882319F48B818F5F8B8381E094
:1009300089831D828B818A30C1F41B8219828A814E
:10094000813089F49E012C5D3F4F80E060E0A90179
:100950000E94FD099E012A5F3F4F81E060E0A901EE
:100960000E94FD0902C00E94160A84E190E00E94E4
:10097000171F84CFDF93CF9300D00F92CDB7DEB790
:100980009B838A8382E089838091D8009091D900EB
:100990009E012F5F3F4FB9014AE050E020E00E94E6
:1009A000550F80E991E00E94171FEECFDF93CF93A0
:1009B00000D0CDB7DEB78BE090E00E941B089A8391
:1009C000898389819A81009749F0E981FA811182AE
:1009D000108289819A8102960E94200A89819A81D7
:1009E0000F900F90CF91DF910895DF93CF93CDB704
:1009F000DEB760970FB6F894DEBF0FBECDBF9A8703
:100A000089877C876B875E874D87388B2F878985A1
:100A10009A859C838B8319820E94E420EB81FC8160
:100A20008081918198878F8389859A852B853C85E4
:100A3000B9010E94CC062F8138858B859C85282B97
:100A4000392B8D859E85282339238D859E852817F2
:100A50003907C9F42F8138858B859C85822B932B90
:100A60009E838D83EB81FC81208131818D859E85E4
:100A70008095909582239323EB81FC8191838083E1
:100A8000188A1F861EC08F859889009791F08B81E8
:100A90009C81BC016E5F7F4F8D859E859C0135607A
:100AA0004F855889CB01B9010E9454231E821D82B3
:100AB00008C0EB81FC81808191819E838D8381E0E0
:100AC00089830E94F0208A838F859889009709F492
:100AD0003AC08A81882311F40E942E0D0E94C725F6
:100AE0009E838D838D819E8180709270009731F5F9
:100AF0000FB6F8940F92EB81FC81808191819E83E7
:100B00008D832D813E818D859E85282339238D857A
:100B10009E852817390771F4EB81FC812081318192
:100B20008D859E858095909582239323EB81FC8112
:100B3000918380830F900FBE81E089838D819E8198
:100B400090709E838D838D819E8160960FB6F89400
:100B5000DEBF0FBECDBFCF91DF9108950F931F93DE
:100B6000DF93CF93CDB7DEB763970FB6F894DEBFB0
:100B70000FBECDBF9D878C877F876E87488B298B63
:100B80001B8B0A8B8C859D859B878A871F821E8283
:100B90001B820E94E420EA85FB85808191819A83F3
:100BA000898389819A812E853F85B90149890E946F
:100BB000E9078D838D818823C1F089819A81998786
:100BC00088871B8A1A8A88898823E9F1EA85FB8548
:100BD000208131818E859F858095909582239323F6
:100BE000EA85FB85918380832EC08A899B89009743
:100BF00039F489819A819987888781E08B8323C022
:100C00008889882329F08E819F8191609F838E83BC
:100C10008989882329F08E819F8194609F838E83A8
:100C20008A859B85BC016E5F7F4F2E853F858E81B7
:100C30009F81282B392B4A895B89CB01B9010E94FE
:100C40005423198618860E94F0208C838A899B89F8
:100C5000009709F43CC08C81882311F40E942E0D6A
:100C60000E94C725998788878885998580709270AA
:100C7000009741F50FB6F8940F92EA85FB858081C5
:100C8000918199878887888599852E853F85B901C7
:100C900049890E94E907882389F08889882371F0AF
:100CA000EA85FB85208131818E859F858095909591
:100CB00082239323EA85FB859183808381E08B8364
:100CC0000F900FBE88859985907099878887888551
:100CD000998563960FB6F894DEBF0FBECDBFCF9156
:100CE000DF911F910F910895DF93CF93CDB7DEB7BA
:100CF00028970FB6F894DEBF0FBECDBF9E838D83BD
:100D000078876F838D819E819C838B830FB6F89447
:100D10000F92EB81FC81808191819A838983EB81A1
:100D2000FC81208131818F819885809590958223E7
:100D30009323EB81FC81918380830F900FBE898187
:100D40009A8128960FB6F894DEBF0FBECDBFCF9123
:100D5000DF910895DF93CF93CDB7DEB727970FB616
:100D6000F894DEBF0FBECDBF9F838E838E819F819F
:100D70009C838B831D82EB81FC81808191819A838E
:100D8000898389819A8127960FB6F894DEBF0FBEBA
:100D9000CDBFCF91DF910895DF93CF93CDB7DEB76D
:100DA00065970FB6F894DEBF0FBECDBF9B8B8A8BC5
:100DB0007D8B6C8B198618868A899B899B838A8395
:100DC00019828A819B8102969B878A878A859B8567
:100DD00003969D878C870E94E420EA85FB858581A8
:100DE0009681998B888BEA81FB81208131818C8966
:100DF0009D89822B932BEA81FB819183808359C04B
:100E0000E889F989828193819F878E87E889F989AA
:100E1000808191819F838E8319828E819F818070D2
:100E20009D838C838E819F8190709F838E838C8124
:100E30009D8180709470009769F4EA81FB81208124
:100E400031818E819F8182239323009791F081E0ED
:100E500089830FC0EA81FB81208131818E819F814E
:100E6000282339238E819F812817390711F481E0C7
:100E7000898389818823C9F08C819D8180709170DC
:100E8000009741F0888599852E813F81822B932B95
:100E900099878887EA81FB81808191819C013260FA
:100EA00088899989B9010E94EF238E859F85998B46
:100EB000888B288939898C859D852817390709F001
:100EC0009FCFEA81FB81208131818885998580953A
:100ED000909582239323EA81FB81918380830E94F2
:100EE000F020EA81FB818081918165960FB6F894AC
:100EF000DEBF0FBECDBFCF91DF910895DF93CF93BB
:100F000000D000D000D0CDB7DEB79E838D838D8119
:100F10009E819C838B838B819C8102969A8389839B
:100F20000E94E42008C0E981FA818581968160E011
:100F300072E00E94EF23E981FA818081882399F78A
:100F40008B819C810E9471080E94F02026960FB62A
:100F5000F894DEBF0FBECDBFCF91DF910895DF9330
:100F6000CF9300D000D000D0CDB7DEB79A8389836D
:100F70004B835C836D837E8389819A812B813C8145
:100F8000B9010E94CC0626960FB6F894DEBF0FBEBC
:100F9000CDBFCF91DF910895DF93CF9300D000D0E4
:100FA00000D0CDB7DEB79A8389834B835C836D8392
:100FB0007E8389819A812B813C81B9010E947406CC
:100FC00026960FB6F894DEBF0FBECDBFCF91DF914E
:100FD0000895DF93CF9300D000D000D0CDB7DEB717
:100FE0009B838A837D836C834E8319828E818823C1
:100FF00059F48A819B812C813D8182239323009720
:1010000081F081E089830DC02A813B818C819D81A3
:10101000282339238C819D812817390711F481E019
:101020008983898126960FB6F894DEBF0FBECDBFA7
:10103000CF91DF910895DF93CF9300D000D0CDB74B
:10104000DEB79C838B831A8219820E94E4208091F0
:10105000DC009091DD00009731F48FED90E09093EB
:10106000DD008093DC008091DA009091DB002B8121
:101070003C81820F931F25E08B3D920738F520912C
:10108000DA003091DB008B819C81280F391F809121
:10109000DA009091DB0082179307C0F42091DC0006
:1010A0003091DD008091DA009091DB00820F931F78
:1010B0009A8389832091DA003091DB008B819C81B7
:1010C000820F931F9093DB008093DA000E94F02040
:1010D00089819A810F900F900F900F90CF91DF919F
:1010E0000895DF93CF9300D0CDB7DEB79A8389837D
:1010F0000F900F90CF91DF910895DF93CF93CDB7ED
:10110000DEB71092DB001092DA00CF91DF910895E4
:10111000DF93CF93CDB7DEB72091DA003091DB00BB
:101120008BED95E0821B930BCF91DF910895DF93B8
:10113000CF93CDB7DEB7AAE3B0E0EAE3F0E0808179
:101140008E608C93AAE3B0E0EAE3F0E08081806FE8
:101150008C9382E00E94B80888E20E94B8088CE074
:101160000E94B80881E00E94B808CF91DF910895ED
:10117000DF93CF930F92CDB7DEB78983ABE3B0E0B7
:10118000EBE3F0E080818D7F8C93ABE3B0E0EBE3A9
:10119000F0E080818B7F8C9381E090E00E94171FAC
:1011A000ABE3B0E0EBE3F0E0808188608C9381E01A
:1011B00090E00E94171FABE3B0E0EBE3F0E080812A
:1011C000982F9F708981807F892B8C9381E090E09C
:1011D0000E94171FABE3B0E0EBE3F0E08081877F74
:1011E0008C9381E090E00E94171FABE3B0E0EBE34B
:1011F000F0E0808188608C9381E090E00E94171F6E
:10120000ABE3B0E0EBE3F0E08081282F2F70898121
:10121000882F90E082959295907F9827807F9827DD
:10122000822B8C9381E090E00E94171FABE3B0E02B
:10123000EBE3F0E08081877F8C9381E090E00E9477
:10124000171F0F90CF91DF910895DF93CF930F92E7
:10125000CDB7DEB78983ABE3B0E0EBE3F0E08081AC
:1012600082608C93ABE3B0E0EBE3F0E080818B7FB6
:101270008C9381E090E00E94171FABE3B0E0EBE3BA
:10128000F0E0808188608C9381E090E00E94171FDD
:10129000ABE3B0E0EBE3F0E08081982F9F708981B1
:1012A000807F892B8C9381E090E00E94171FABE335
:1012B000B0E0EBE3F0E08081877F8C9381E090E009
:1012C0000E94171FABE3B0E0EBE3F0E080818860A1
:1012D0008C9381E090E00E94171FABE3B0E0EBE35A
:1012E000F0E08081282F2F708981882F90E08295EF
:1012F0009295907F9827807F9827822B8C9381E00E
:1013000090E00E94171FABE3B0E0EBE3F0E08081D8
:10131000877F8C9381E090E00E94171F0F90CF9100
:10132000DF910895DF93CF9300D00F92CDB7DEB752
:101330009B838A8319820EC08981282F30E08A819D
:101340009B81FC01E20FF31F80810E9425098981A6
:101350008F5F89838981282F30E08A819B81FC01FE
:10136000E20FF31F8081882339F70F900F900F90C1
:10137000CF91DF910895DF93CF9300D000D00F92EB
:10138000CDB7DEB78A836B838A81282F30E03D8317
:101390002C838C819D8181309105C1F02C813D8110
:1013A000223031052CF48C819D81009761F019C0A9
:1013B0002C813D812230310569F08C819D81833003
:1013C000910561F00EC08B8189830BC08B81805C9D
:1013D000898307C08B81805F898303C08B81805B99
:1013E0008983898180680E94B8080F900F900F90C0
:1013F0000F900F90CF91DF910895DF93CF9300D09E
:1014000000D0CDB7DEB789836A835C834B83898143
:101410006A810E94BB098B819C810E9492090F9076
:101420000F900F900F90CF91DF910895DF93CF939E
:10143000CDB7DEB781E00E94B808CF91DF91089563
:10144000DF93CF9300D0CDB7DEB79A8389838981AC
:101450009A810396E981FA8192838183E981FA81F5
:101460008FEF9FEF9483838389819A810396E9812B
:10147000FA819683858389819A810396E981FA812D
:1014800090878783E981FA8110820F900F90CF9126
:10149000DF910895DF93CF9300D0CDB7DEB79A8365
:1014A0008983E981FA81118610860F900F90CF9180
:1014B000DF910895DF93CF9300D000D000D0CDB757
:1014C000DEB79C838B837E836D83EB81FC8181817E
:1014D00092819A838983ED81FE8189819A819383A8
:1014E0008283E981FA8184819581ED81FE819583F2
:1014F0008483E981FA810480F581E02D8D819E81CC
:1015000093838283E981FA818D819E81958384838F
:10151000ED81FE818B819C8191878087EB81FC81AD
:1015200080818F5FEB81FC81808326960FB6F894D3
:10153000DEBF0FBECDBFCF91DF910895DF93CF9374
:10154000CDB7DEB728970FB6F894DEBF0FBECDBF7C
:101550009E838D8378876F83EF81F8858081918169
:101560009A83898389819A812FEF8F3F920739F47B
:10157000ED81FE81878190859C838B8318C08D814E
:101580009E8103969C838B8306C0EB81FC818281C4
:1015900093819C838B83EB81FC810280F381E02D1E
:1015A0002081318189819A818217930770F7EB81BD
:1015B000FC8182819381EF81F88593838283EF811F
:1015C000F8850280F381E02D8F819885958384834F
:1015D000EF81F8858B819C8195838483EB81FC81ED
:1015E0008F81988593838283EF81F8858D819E8199
:1015F00091878087ED81FE8180818F5FED81FE8103
:10160000808328960FB6F894DEBF0FBECDBFCF9172
:10161000DF910895DF93CF9300D000D0CDB7DEB730
:101620009C838B83EB81FC81808591859A83898360
:10163000EB81FC81A281B381EB81FC818481958166
:1016400015969C938E931497EB81FC81A481B581B0
:10165000EB81FC818281938113969C938E931297E8
:10166000E981FA81218132818B819C812817390798
:1016700041F4EB81FC8184819581E981FA81928337
:101680008183EB81FC8111861086E981FA8180815A
:101690008150E981FA818083E981FA8180810F900C
:1016A0000F900F900F90CF91DF910895EF92FF92DE
:1016B0000F93DF93CF93CDB7DEB783EC92E022ECAC
:1016C00030E0E4EDF0E0B90146E950E020E030E040
:1016D00004E07F010E94F91C0E94A620FFCFDF9347
:1016E000CF93CDB7DEB728970FB6F894DEBF0FBE05
:1016F000CDBF9C838B837E836D8358874F83EB8123
:10170000FC8181E180838B819C8101979C838B8309
:10171000EB81FC8182E280838B819C8101979C8399
:101720008B83EB81FC8183E380838B819C81019798
:101730009C838B838D819E819A8389838981EB81B0
:10174000FC8180838B819C8101979C838B83898121
:101750009A81892F99279A8389838981EB81FC81DA
:1017600080838B819C8101979C838B83EB81FC819F
:1017700010828B819C8101979C838B83EB81FC8100
:1017800080E880838B819C8101979C838B83EB8194
:10179000FC8110828B819C8101979C838B83EB81E0
:1017A000FC8182E080838B819C8101979C838B8369
:1017B000EB81FC8183E080838B819C8101979C83FA
:1017C0008B83EB81FC8184E080838B819C810197FA
:1017D0009C838B83EB81FC8185E080838B819C8162
:1017E00001979C838B83EB81FC8186E080838B81D6
:1017F0009C8101979C838B83EB81FC8187E08083B4
:101800008B819C8101979C838B83EB81FC8188E099
:1018100080838B819C8101979C838B83EB81FC81EE
:1018200089E080838B819C8101979C838B83EB81F2
:10183000FC8180E180838B819C8101979C838B83D9
:10184000EB81FC8181E180838B819C8101979C836A
:101850008B83EB81FC8182E180838B819C8101976A
:101860009C838B83EB81FC8183E180838B819C81D2
:1018700001979C838B83EB81FC8184E180838B8146
:101880009C8101979C838B83EB81FC8185E1808324
:101890008B819C8101979C838B83EB81FC8186E10A
:1018A00080838B819C8101979C838B83EB81FC815E
:1018B00087E180838B819C8101979C838B83EB8163
:1018C000FC8188E180838B819C8101979C838B8341
:1018D000EB81FC8189E180838B819C8101979C83D2
:1018E0008B83EB81FC8180E280838B819C810197DB
:1018F0009C838B83EB81FC8181E280838B819C8143
:1019000001979C838B83EB81FC8182E280838B81B6
:101910009C8101979C838B83EB81FC8183E2808394
:101920008B819C8101979C838B838F8198859A837F
:1019300089838981EB81FC8180838B819C810197E4
:101940009C838B8389819A81892F99279A838983A4
:101950008981EB81FC8180838B819C8101979C83B1
:101960008B83EB81FC8186E280838B819C81019754
:101970009C838B83EB81FC8187E280838B819C81BC
:1019800001979C838B83EB81FC8188E280838B8130
:101990009C8101979C838B83EB81FC8189E280830E
:1019A0008B819C8101979C838B83EB81FC8180E3FD
:1019B00080838B819C8101979C838B83EB81FC814D
:1019C00081E380838B819C8101979C838B838B81B6
:1019D0009C8128960FB6F894DEBF0FBECDBFCF9185
:1019E000DF910895DF93CF93CDB7DEB70E94E40D6A
:1019F000A091BA06B091BB06CD91CDBFDD91DEBFFF
:101A0000FF91EF91DF91CF91BF91AF919F918F9116
:101A10007F916F915F914F913F912F911F910F9106
:101A2000FF90EF90DF90CF90BF90AF909F908F90FE
:101A30007F906F905F904F903F902F901F900F90EE
:101A40000FBE0F90089581E0CF91DF910895DF934D
:101A5000CF93CDB7DEB7CF91DF9108950F920FB638
:101A6000F8940F921F9211242F923F924F925F92FF
:101A70006F927F928F929F92AF92BF92CF92DF929E
:101A8000EF92FF920F931F932F933F934F935F9388
:101A90006F937F938F939F93AF93BF93CF93DF9376
:101AA000EF93FF93A091BA06B091BB060DB60D92CD
:101AB0000EB60D920E94C522A091BA06B091BB0647
:101AC000CD91CDBFDD91DEBFFF91EF91DF91CF9141
:101AD000BF91AF919F918F917F916F915F914F9146
:101AE0003F912F911F910F91FF90EF90DF90CF903A
:101AF000BF90AF909F908F907F906F905F904F902E
:101B00003F902F901F900F900FBE0F9008950F924F
:101B10000FB6F8940F921F9211242F923F924F927A
:101B20005F926F927F928F929F92AF92BF92CF926D
:101B3000DF92EF92FF920F931F932F933F934F9358
:101B40005F936F937F938F939F93AF93BF93CF9345
:101B5000DF93EF93FF93A091BA06B091BB060DB649
:101B60000D920EB60D920E94E021882311F00E9482
:101B7000C522A091BA06B091BB06CD91CDBFDD9133
:101B8000DEBFFF91EF91DF91CF91BF91AF919F9118
:101B90008F917F916F915F914F913F912F911F9105
:101BA0000F91FF90EF90DF90CF90BF90AF909F90FC
:101BB0008F907F906F905F904F903F902F901F90ED
:101BC0000F900FBE0F900895DF93CF9300D000D0F9
:101BD00000D0CDB7DEB780E49FE1A0E0B0E08B831A
:101BE0009C83AD83BE838B819C81AD81BE816894D3
:101BF00015F8B695A795979587951694D1F78B8389
:101C00009C83AD83BE838B819C81AD81BE81019716
:101C1000A109B1098B839C83AD83BE838B818983AA
:101C20008B819C81AD81BE81892F9A2FAB2FBB27E1
:101C30008B839C83AD83BE838B818A83EBE4F0E04E
:101C40008A818083EAE4F0E0898180838BE0898364
:101C5000EEE4F0E089818083E9E5F0E0808189832A
:101C6000898180618983E9E5F0E089818083269616
:101C70000FB6F894DEBF0FBECDBFCF91DF910895B0
:101C80000E94870D1895DF93CF9300D000D00F925C
:101C9000CDB7DEB79C838B836D838B819C819A83C8
:101CA00089830FB6F8940F92E981FA8140815181BE
:101CB000E981FA81838D282F30E0E981FA81848DD2
:101CC000882F90E0BC01269FC001279F900D369F72
:101CD000900D1124840F951FE981FA8195838483E7
:101CE000E981FA81128EE981FA8180819181E9810D
:101CF000FA8193838283E981FA8140815181E9816C
:101D0000FA81838D882F90E09C0121503040E98139
:101D1000FA81848D882F90E0BC01269FC001279F07
:101D2000900D369F900D1124840F951FE981FA8143
:101D300097838683E981FA818FEF858FE981FA8124
:101D40008FEF868F8D81882379F4E981FA818085F0
:101D50008823A1F089819A8108960E948423882390
:101D600069F00E942E0D0AC089819A8108960E940E
:101D7000200A89819A8141960E94200A0F900FBE05
:101D800081E00F900F900F900F900F90CF91DF9107
:101D900008950F931F93DF93CF93CDB7DEB72997A5
:101DA0000FB6F894DEBF0FBECDBF8F83688749871B
:101DB0008885882319F41C821B8210C08F81282FEC
:101DC00030E08885882F90E0AC01249FC001259FDA
:101DD000900D349F900D11249C838B838B819C816B
:101DE0004F960E941B089E838D838D819E81009754
:101DF000A1F08D819E819A83898389819A814F96F2
:101E00009A83898329813A81ED81FE818F8168855A
:101E1000A90129858F010E941A0F8D819E81299623
:101E20000FB6F894DEBF0FBECDBFCF91DF911F91EB
:101E30000F9108950F931F93DF93CF93CDB7DEB724
:101E400027970FB6F894DEBF0FBECDBF89836A8394
:101E50005C834B832D831F830E838A81882339F40F
:101E60008E819F81EE81FF819183808306C08B816B
:101E70009C81EE81FF8191838083EE81FF81898146
:101E8000838FEE81FF818A81848F8E819F8161E0C3
:101E90000E94430E27960FB6F894DEBF0FBECDBF4B
:101EA000CF91DF911F910F910895DF93CF93CDB71D
:101EB000DEB72F970FB6F894DEBF0FBECDBF998760
:101EC00088877B876A875D874C872E871C828885F9
:101ED00099859A8389830FB6F8940F92E981FA81E4
:101EE000928DE981FA81838D981718F08E85823062
:101EF00011F589819A812A853B85B9014E850E9419
:101F0000A7138B83E981FA818189882351F0898124
:101F10009A8141960E948423882341F00E942E0DCD
:101F200005C08B81882311F00E942E0D0F900FBEEB
:101F300081E08F875CC08C859D85009721F40F9090
:101F40000FBE1F8654C08C81882331F4CE010596C4
:101F50000E946A2481E08C830F900FBE0E94E420CF
:101F60000FB6F8940F92E981FA81858D8F3F19F4AD
:101F7000E981FA81158EE981FA81868D8F3F19F406
:101F8000E981FA81168E0F900FBECE0105969E0153
:101F9000245F3F4FB9010E948324882309F589817A
:101FA0009A810E9423158823A1F089819A8108963D
:101FB0002C853D85B9010E94322389819A810E9436
:101FC00094140E94F020882309F085CF0E942E0DE2
:101FD00082CF89819A810E9494140E94F0207BCF45
:101FE00089819A810E9494140E94F0201F868F8517
:101FF0002F960FB6F894DEBF0FBECDBFCF91DF9105
:102000000895DF93CF93CDB7DEB72C970FB6F89432
:10201000DEBF0FBECDBF9F838E83798768875B87C6
:102020004A872C878E819F819B838A831C82EA81C9
:10203000FB81928DEA81FB81838D981718F08C8546
:10204000823061F5EA81FB81868D89838A819B815B
:1020500028853985B9014C850E94A71389818F3F56
:10206000A9F4EA81FB8181898823A9F08A819B8177
:1020700041960E948423882371F08A859B8500976E
:1020800051F0EA85FB8581E0808305C089818F5FFF
:10209000EA81FB81868F81E08D8301C01D828D8165
:1020A0002C960FB6F894DEBF0FBECDBFCF91DF9157
:1020B0000895DF93CF93CDB7DEB72A970FB6F89484
:1020C000DEBF0FBECDBF98878F837A8769878F81E8
:1020D00098859C838B831D82EB81FC81828D8A8312
:1020E000EB81FC81938D8A81891748F5EB81FC8116
:1020F000868D89838A818F5FEB81FC81828F8981C4
:102100008F3FA9F4EB81FC8181898823A9F08B8121
:102110009C8141960E948423882371F089859A8549
:10212000009751F0E985FA8581E0808305C08981B7
:102130008F5FEB81FC81868F81E08E8301C01E82E0
:102140008E812A960FB6F894DEBF0FBECDBFCF9119
:10215000DF910895DF93CF93CDB7DEB72E970FB6FB
:10216000F894DEBF0FBECDBF998788877B876A87CB
:102170005D874C871C82888599859B838A830FB6EF
:10218000F8940F92EA81FB81828D8983898188236B
:10219000F9F08A819B812A853B85B9010E944D1403
:1021A00089818150EA81FB81828FEA81FB81808570
:1021B000882349F08A819B8108960E948423882382
:1021C00011F00E942E0D0F900FBE81E08E8763C02C
:1021D0008C859D85009721F40F900FBE1E865BC0F5
:1021E0008C81882331F4CE0105960E946A2481E017
:1021F0008C830F900FBE0E94E4200FB6F8940F92CC
:10220000EA81FB81858D8F3F19F4EA81FB81158E70
:10221000EA81FB81868D8F3F19F4EA81FB81168E5E
:102220000F900FBECE0105969E01245F3F4FB9016E
:102230000E948324882309F58A819B810E94E714E8
:102240008823A1F08A819B8141962C853D85B90127
:102250000E9432238A819B810E9494140E94F02064
:10226000882309F08CCF0E942E0D89CF8A819B8113
:102270000E9494140E94F02082CF8A819B810E9448
:1022800094140E94F0208A819B810E94E714882385
:1022900009F475CF1E868E852E960FB6F894DEBF94
:1022A0000FBECDBFCF91DF910895DF93CF93CDB710
:1022B000DEB72C970FB6F894DEBF0FBECDBF99875F
:1022C00088877B876A871C82888599859B838A8318
:1022D0000FB6F8940F92EA81FB81828D8983898100
:1022E0008823C1F089818150EA81FB81828FEA8154
:1022F000FB818085882349F08A819B8108960E9412
:102300008423882311F00E942E0D0F900FBE81E0D0
:102310008C8763C08A859B85009721F40F900FBE40
:102320001C865BC08C81882331F4CE0105960E9407
:102330006A2481E08C830F900FBE0E94E4200FB6C8
:10234000F8940F92EA81FB81858D8F3F19F4EA8121
:10235000FB81158EEA81FB81868D8F3F19F4EA811E
:10236000FB81168E0F900FBECE0105969E01265F53
:102370003F4FB9010E948324882309F58A819B81FC
:102380000E94E7148823A1F08A819B8141962A85C7
:102390003B85B9010E9432238A819B810E9494145B
:1023A0000E94F020882309F093CF0E942E0D90CF39
:1023B0008A819B810E9494140E94F02089CF8A8197
:1023C0009B810E9494140E94F0208A819B810E942C
:1023D000E714882309F47CCF1C868C852C960FB6D5
:1023E000F894DEBF0FBECDBFCF91DF910895DF938C
:1023F000CF93CDB7DEB760970FB6F894DEBF0FBEB0
:10240000CDBF9B878A877D876C875F874E871E82BB
:102410008A859B859B838A830FB6F8940F92EA8105
:10242000FB81828D89838981882331F1EA81FB8157
:10243000868197819D838C838A819B812C853D85B4
:10244000B9010E944D14EA81FB818C819D819783A3
:102450008683EA81FB818189882349F08A819B8177
:1024600041960E948423882311F00E942E0D0F9024
:102470000FBE81E0888B63C08E859F85009721F415
:102480000F900FBE188A5BC08E81882331F4CE0175
:1024900007960E946A2481E08E830F900FBE0E94EF
:1024A000E4200FB6F8940F92EA81FB81858D8F3F6F
:1024B00019F4EA81FB81158EEA81FB81868D8F3FBD
:1024C00019F4EA81FB81168E0F900FBECE0107969C
:1024D0009E01225F3F4FB9010E948324882309F5A2
:1024E0008A819B810E94E7148823A1F08A819B81C5
:1024F00041962E853F85B9010E9432238A819B81B6
:102500000E9494140E94F020882309F085CF0E9435
:102510002E0D82CF8A819B810E9494140E94F0200C
:102520007BCF8A819B810E9494140E94F0208A8133
:102530009B810E94E714882309F46ECF188A88894A
:1025400060960FB6F894DEBF0FBECDBFCF91DF917E
:102550000895DF93CF93CDB7DEB72C970FB6F894DD
:10256000DEBF0FBECDBF98878F837A8769875C8770
:102570004B878F8198859C838B831D82EB81FC81A7
:10258000828D8A838A81882381F1EB81FC81858D0C
:1025900089838B819C8129853A85B9010E944D14DC
:1025A0008A818150EB81FC81828F89818F3FA9F4E0
:1025B000EB81FC8180858823A9F08B819C81089622
:1025C0000E948423882371F08B859C85009751F0AD
:1025D000EB85FC8581E0808305C089818F5FEB817D
:1025E000FC81858F81E08E8301C01E828E812C96B6
:1025F0000FB6F894DEBF0FBECDBFCF91DF91089527
:10260000DF93CF93CDB7DEB72A970FB6F894DEBF2E
:102610000FBECDBF98878F837A8769878F81988512
:102620009A8389831D82E981FA81828D8823B1F0A2
:10263000E981FA81868197819C838B8389819A8144
:1026400029853A85B9010E944D14E981FA818B816F
:102650009C819783868381E08E8301C01E828E8158
:102660002A960FB6F894DEBF0FBECDBFCF91DF9193
:102670000895DF93CF9300D00F92CDB7DEB79B8341
:102680008A830FB6F8940F92EA81FB81828D898349
:102690000F900FBE89810F900F900F90CF91DF9117
:1026A0000895DF93CF9300D000D00F92CDB7DEB75F
:1026B0009D838C838C819D819A8389830FB6F89446
:1026C0000F92E981FA81938DE981FA81828D292F18
:1026D000281B822F8B830F900FBE8B810F900F9042
:1026E0000F900F900F90CF91DF910895DF93CF93CC
:1026F00000D000D00F92CDB7DEB79D838C838C8144
:102700009D819A838983E981FA81828D8B838B8174
:102710000F900F900F900F900F90CF91DF91089531
:10272000DF93CF9300D000D0CDB7DEB79C838B83EF
:102730008B819C819A83898389819A810E94710807
:102740000F900F900F900F90CF91DF910895DF932E
:10275000CF93CDB7DEB727970FB6F894DEBF0FBE85
:10276000CDBF9C838B837E836D834F831A82EB81E5
:10277000FC81828D8983EB81FC81848D882309F41F
:102780007DC08F81882399F5EB81FC816281738103
:10279000EB81FC81848D482F50E02D813E81CB015F
:1027A000B9010E94122AEB81FC8122813381EB81E5
:1027B000FC81848D882F90E0820F931FEB81FC8138
:1027C00093838283EB81FC8122813381EB81FC81C5
:1027D000848195812817390708F450C0EB81FC816A
:1027E00080819181EB81FC819383828347C0EB815F
:1027F000FC8166817781EB81FC81848D482F50E0DC
:102800002D813E81CB01B9010E94122AEB81FC810E
:1028100026813781EB81FC81848D882F90E0909513
:1028200081959F4F820F931FEB81FC819783868355
:10283000EB81FC8126813781EB81FC818081918154
:102840002817390790F4EB81FC8124813581EB81D5
:10285000FC81848D882F90E0909581959F4F820F09
:10286000931FEB81FC81978386838F81823031F4C3
:102870008981882319F089818150898389818F5FBB
:10288000EB81FC81828F8A8127960FB6F894DEBF98
:102890000FBECDBFCF91DF910895DF93CF9300D0CE
:1028A00000D0CDB7DEB79A8389837C836B83E981BF
:1028B000FA81848D882389F1E981FA812681378123
:1028C000E981FA81848D882F90E0820F931FE9813E
:1028D000FA8197838683E981FA8126813781E981AC
:1028E000FA81848195812817390740F0E981FA81BE
:1028F00080819181E981FA8197838683E981FA81D8
:1029000046815781E981FA81848D282F30E08B81BF
:102910009C81BA01A9010E94122A0F900F900F907A
:102920000F90CF91DF910895DF93CF9300D000D027
:10293000CDB7DEB79C838B830FB6F8940F92EB81F3
:10294000FC81868D8A8311C0EB81FC81818988237B
:1029500079F08B819C8141960E948423882311F019
:102960000E94F0248A8181508A838A81181664F338
:10297000EB81FC818FEF868F0F900FBE0FB6F8941E
:102980000F92EB81FC81858D898311C0EB81FC81E5
:102990008085882379F08B819C8108960E9484230E
:1029A000882311F00E94F0248981815089838981D4
:1029B000181664F3EB81FC818FEF858F0F900FBEAB
:1029C0000F900F900F900F90CF91DF910895DF93AC
:1029D000CF9300D00F92CDB7DEB79B838A830FB61B
:1029E000F8940F92EA81FB81828D882319F481E0AB
:1029F000898301C019820F900FBE89810F900F90BB
:102A00000F90CF91DF910895DF93CF9300D000D046
:102A10000F92CDB7DEB79D838C838C819D819A8385
:102A20008983E981FA81828D882319F481E08B837F
:102A300001C01B828B810F900F900F900F900F9011
:102A4000CF91DF910895DF93CF9300D00F92CDB750
:102A5000DEB79B838A830FB6F8940F92EA81FB81DD
:102A6000928DEA81FB81838D981719F481E0898327
:102A700001C019820F900FBE89810F900F900F90A7
:102A8000CF91DF910895DF93CF9300D000D00F92C4
:102A9000CDB7DEB79D838C838C819D819A8389839A
:102AA000E981FA81928DE981FA81838D981719F471
:102AB00081E08B8301C01B828B810F900F900F9060
:102AC0000F900F90CF91DF9108950F93DF93CF93E5
:102AD000CDB7DEB728970FB6F894DEBF0FBECDBFD7
:102AE0009D838C837F836E8348878885813019F42A
:102AF00081E0898301C019828E819F81009721F432
:102B000081E090E09F838E838C819D8101969D83DF
:102B10008C838C819D810F960E941B089B838A83E6
:102B20008A819B81009789F06A817B818A819B8160
:102B30009C01215F3F4F4C815D81EE81FF81CB0184
:102B4000B9019F0109810E94BD1C8A819B81289641
:102B50000FB6F894DEBF0FBECDBFCF91DF910F91BE
:102B60000895DF93CF9300D000D0CDB7DEB79C831C
:102B70008B838B819C819A838983E981FA81868505
:102B8000882F90E082709070009729F489819A8153
:102B90000E94710808C089819A8160E070E04FE06E
:102BA00050E00E941B2A0F900F900F900F90CF9132
:102BB000DF9108950F93DF93CF9300D000D00F9251
:102BC000CDB7DEB79D838C838C819D819B838A8367
:102BD00019820FB6F8940F92EA81FB818085918566
:102BE0000097F1F4EA81FB81828593850097C1F417
:102BF000EA81FB8124853585EA81FB814481558109
:102C0000EA81FB81A681B781EA81FB81E6858A8121
:102C10009B81B9019D010E2F0E94BD1C81E089831B
:102C20000F900FBE89810F900F900F900F900F9013
:102C3000CF91DF910F910895DF93CF93CDB7DEB79A
:102C400027970FB6F894DEBF0FBECDBF9D838C8350
:102C50007F836E838C819D819B838A838E819F81FC
:102C6000009721F481E090E09F838E83EA81FB81CD
:102C7000248135818E819F812817390748F0EA81A8
:102C8000FB818E819F819783868381E0898301C048
:102C90001982898127960FB6F894DEBF0FBECDBF8B
:102CA000CF91DF910895DF93CF9300D000D000D073
:102CB000CDB7DEB79E838D838D819E819C838B8370
:102CC000EB81FC8124813581EB81FC8180819181C4
:102CD000820F931F9A838983EB81FC812281338148
:102CE00089819A81821B930B9A83898389819A8136
:102CF00001979A838983EB81FC81248135818981C5
:102D00009A818217930750F0EB81FC8124813581F1
:102D100089819A81821B930B9A83898389819A8105
:102D200026960FB6F894DEBF0FBECDBFCF91DF91D0
:102D30000895DF93CF9300D000D000D0CDB7DEB799
:102D40009E838D838D819E819C838B838B819C81CF
:102D50000E94831C9A83898389819A8126960FB663
:102D6000F894DEBF0FBECDBFCF91DF910895EF92F3
:102D7000FF920F931F93DF93CF93CDB7DEB7639787
:102D80000FB6F894DEBF0FBECDBF9D878C877F87BF
:102D90006E87598B488B3B8B2A8B8C859D859887BA
:102DA0008F831C821B82888999899A838983EF810A
:102DB000F8858685882F90E081709070882329F0AF
:102DC00089819A8102969A8389838A899B8900974F
:102DD00009F440C0CE0109960E944C240FB6F89425
:102DE0000F928F8198850E9453169C838B832B8131
:102DF0003C8189819A812817390750F580E090E05D
:102E00000E945C290E94B525EF81F885938782870F
:102E10000F900FBEEA89FB8960E070E080E090E0EF
:102E200020E030E040E050E000E010E07F010E9450
:102E30006526EF81F88513861286CE0109969E01DC
:102E40002E5E3F4FB9010E948324882339F202C0CD
:102E50000F900FBE8B819C81009731F48F819885F4
:102E60000E9453169C838B838F8198852E853F8586
:102E700048895989EB81FC81A981BA81B9019F01F7
:102E80008D010E94FC179E838D838D819E8100970A
:102E900039F18F8198850E94831C9C01EF81F88510
:102EA0008681978128173907D8F00E94E420EF81A6
:102EB000F88580859185009789F0EF81F885808578
:102EC000918540E050E060E070E020E000E010E03C
:102ED0000E940127EF81F885118610860E94F0205C
:102EE0008D819E8163960FB6F894DEBF0FBECDBF75
:102EF000CF91DF911F910F91FF90EF900895EF9286
:102F0000FF920F931F93DF93CF93CDB7DEB76197F7
:102F10000FB6F894DEBF0FBECDBF9B878A877D8733
:102F20006C875F874E87398B288B8A859B8599872D
:102F300088878E859F859B838A83E885F98586852A
:102F4000882F90E081709070882329F08A819B817E
:102F500002969B838A83888599850E9453169D8358
:102F60008C83888599852C853D854E855F85EC8190
:102F7000FD81AA81BB81B9019F018D010E94FC17CF
:102F80009F838E838E819F81009739F188859985F3
:102F90000E94831C9C01E885F9858681978128170A
:102FA0003907D8F01982E885F985808591850097E1
:102FB000A1F0E885F98580859185E889F98940E067
:102FC00050E060E070E020E000E010E07F010E944F
:102FD000DE27E885F985118610868E819F816196AE
:102FE0000FB6F894DEBF0FBECDBFCF91DF911F911A
:102FF0000F91FF90EF9008950F931F93DF93CF935E
:10300000CDB7DEB761970FB6F894DEBF0FBECDBF68
:103010009D838C837F836E83598748873B872A876C
:103020001D870C878A859B85009711F41B8238C009
:10303000EC81FD818685882F90E0817090700097EB
:10304000D1F481E08B8328853985398B288B8A855B
:103050009B859F878E872E853F85888999898217D2
:10306000930720F4288939893F872E878E859F858D
:103070009987888715C02A853B858C859D8528176B
:10308000390768F081E08B839E01285F3F4F8C8178
:103090009D81B90142E050E00E94491B01C01B82A2
:1030A0008B81882361F02E813F81488559858C81F1
:1030B0009D81B9010E94491B9A83898302C01A82AB
:1030C000198289819A8161960FB6F894DEBF0FBE8E
:1030D000CDBFCF91DF911F910F910895EF92FF9295
:1030E0000F931F93DF93CF93CDB7DEB760970FB6E3
:1030F000F894DEBF0FBECDBF9A8789877C876B8728
:103100005E874D87388B2F8789859A8598878F832F
:103110001E821D82EF81F8858685882F90E0817060
:103120009070882329F082E090E09A83898302C01E
:103130001A8219828F859889009709F43DC00FB6CD
:10314000F8940F928F8198850E94831C9C838B83B7
:103150002B813C8189819A818217930750F080E00E
:1031600090E00E945C290E94B525EF81F885918747
:1031700080870F900FBE2B813C8189819A818217B5
:10318000930700F1EF85F88960E070E080E090E05F
:1031900020E030E040E050E000E010E07F010E94DD
:1031A0006526EF81F885118610868F8198850E94AB
:1031B000831C9C838B8306C08F8198850E94831C0F
:1031C0009C838B832B813C8189819A818217930711
:1031D00080F58F8198852B853C854D855E85EB81BB
:1031E000FC81A981BA81B9019F018D010E94F21968
:1031F0009E838D838D819E810097D9F00E94E4206B
:10320000EF81F88582859385009789F0EF81F885B5
:103210008285938540E050E060E070E020E000E0CF
:1032200010E00E940127EF81F885138612860E9424
:10323000F0208D819E8160960FB6F894DEBF0FBEA0
:10324000CDBFCF91DF911F910F91FF90EF90089527
:10325000DF93CF93CDB7DEB72C970FB6F894DEBFD0
:103260000FBECDBF9C878B878B859C8598878F836E
:10327000EF81F8858685882F90E081709070882393
:1032800061F18F8198850E94831C9C838B838B8145
:103290009C8183309105F0F0EF81F88580819181E8
:1032A0009A8389839E01275F3F4F8F819885EB81A9
:1032B000FC81B90142E050E09F010E94D61B898544
:1032C0009A859E838D83EF81F88589819A81918388
:1032D000808305C01E821D8202C01E821D828D81D8
:1032E0009E812C960FB6F894DEBF0FBECDBFCF9156
:1032F000DF910895EF92FF920F931F93DF93CF9387
:10330000CDB7DEB761970FB6F894DEBF0FBECDBF65
:103310009B878A877D876C875F874E87398B288B51
:103320008A859B85998788871F821E82E885F98513
:103330008685882F90E081709070882329F082E044
:1033400090E09B838A8302C01B821A8288859985BC
:103350000E94831C9D838C832C813D818A819B816B
:103360008217930780F5888599852C853D854E8544
:103370005F85EC81FD81AA81BB81B9019F018D012F
:103380000E94F2199F838E838E819F810097D9F0CE
:103390001982E885F985828593850097A1F0E885F3
:1033A000F98582859385E889F98940E050E060E0FD
:1033B00070E020E000E010E07F010E94DE27E88559
:1033C000F985138612868E819F8161960FB6F894D7
:1033D000DEBF0FBECDBFCF91DF911F910F91FF9048
:1033E000EF9008950F931F93DF93CF93CDB7DEB780
:1033F00062970FB6F894DEBF0FBECDBF9A8789875C
:103400007C876B875E874D87388B2F871A8B098B5C
:1034100089899A89009791F1E985FA85808191815E
:103420009E838D83AE01495F5F4F89859A85298987
:103430003A89EF85F889BA01A9019F010E94D61B3C
:103440008F8198859A8389832F85388989899A897C
:10345000A901481B590BCA01988B8F8729813A8192
:103460008D859E858217930768F4E985FA858D819D
:103470009E81918380831A82198204C08D859E85E6
:103480009A8389834B855C8589859A8529813A81D0
:10349000EF85F889BA01A9019F010E94D61B9C8380
:1034A0008B838B819C8162960FB6F894DEBF0FBE32
:1034B000CDBFCF91DF911F910F910895DF93CF93EF
:1034C000CDB7DEB727970FB6F894DEBF0FBECDBFDE
:1034D0009F838E838E819F819D838C83EC81FD8170
:1034E000808191819A838983EC81FD81228133815E
:1034F00089819A812817390719F481E08B8301C0EB
:103500001B828B8127960FB6F894DEBF0FBECDBF0E
:10351000CF91DF910895DF93CF93CDB7DEB7279793
:103520000FB6F894DEBF0FBECDBF9F838E838E8112
:103530009F819A838983E981FA818685882F90E02B
:1035400081709070882329F082E090E09C838B83C7
:1035500002C01C821B828E819F810E9453169C0197
:103560008B819C818217930718F081E08D8301C0C5
:103570001D828D8127960FB6F894DEBF0FBECDBF9A
:10358000CF91DF910895EF92FF920F931F93DF93F6
:10359000CF93CDB7DEB728970FB6F894DEBF0FBE36
:1035A000CDBF9E838D8378876F838D819E819C8321
:1035B0008B831982EB81FC81808591850097B9F01E
:1035C000EB81FC8180859185EF81F88540E050E0BA
:1035D00060E070E020E000E010E07F010E94DE2764
:1035E000EB81FC811186108681E08A8301C01A82FA
:1035F0008A8128960FB6F894DEBF0FBECDBFCF915B
:10360000DF911F910F91FF90EF900895EF92FF923D
:103610000F931F93DF93CF93CDB7DEB728970FB6E5
:10362000F894DEBF0FBECDBF9E838D8378876F83F6
:103630008D819E819C838B831982EB81FC818285A5
:1036400093850097B9F0EB81FC8182859385EF81AA
:10365000F88540E050E060E070E020E000E010E03D
:103660007F010E94DE27EB81FC811386128681E0B8
:103670008A8301C01A828A8128960FB6F894DEBF29
:103680000FBECDBFCF91DF911F910F91FF90EF90B3
:103690000895DF93CF93CDB7DEB72E970FB6F8948A
:1036A000DEBF0FBECDBF9E838D8378876F835A8721
:1036B0004987ED81FE81828193819C838B83ED819B
:1036C000FE81248135818B819C81A901481B590B86
:1036D000CA0129853A853E872D879C878B874B8534
:1036E0005C858D859E858417950720F42D853E8504
:1036F0003C872B874B855C855A834983ED81FE810E
:10370000248535858B819C81820F931F2F8138857D
:1037100049815A81B9010E94122A29853A858981F5
:103720009A8182179307B0F4ED81FE8164857585D7
:103730002F81388589819A81A901480F591F2985D0
:103740003A8589819A81281B390BCB01BA01A901DD
:103750000E94122A2B813C8189859A85820F931FB2
:103760009C838B83ED81FE81248135818B819C81BB
:103770008217930750F0ED81FE81248135818B8182
:103780009C81821B930B9C838B83ED81FE818B81BB
:103790009C819383828389859A852E960FB6F894AF
:1037A000DEBF0FBECDBFCF91DF910895DF93CF93E2
:1037B000CDB7DEB766970FB6F894DEBF0FBECDBFAC
:1037C00098878F837A8769875C874B873E872D87A9
:1037D0002D853E853A8B298B4B855C85588B4F8791
:1037E0008F85988929893A892817390720F44989CA
:1037F0005A89588B4F878F8598899E838D838D81B9
:103800009E81009709F474C0EF81F88580819181D1
:103810009A838983EF81F8852481358189819A8112
:10382000A901481B590BCA012D813E813E8B2D8B6E
:103830009C8B8B8B4B895C898D899E89841795071E
:1038400020F42D893E893C8B2B8B4B895C895C83D2
:103850004B83EF81F8852485358589819A81A9017B
:10386000480F591F89859A852B813C81BA01A9018E
:103870000E94122A2D813E818B819C8182179307A1
:10388000B0F429853A858B819C81B901680F791F35
:10389000EF81F885448555852D813E818B819C8102
:1038A000281B390BCB01BA01A9010E94122A2981D8
:1038B0003A818D819E81820F931F9A838983EF8144
:1038C000F8852481358189819A818217930750F088
:1038D000EF81F8852481358189819A81821B930B40
:1038E0009A838983EF81F88589819A819183808386
:1038F0008D819E8166960FB6F894DEBF0FBECDBF58
:10390000CF91DF910895DF93CF9300D000D0CDB752
:10391000DEB79C838B83EB81FC8124813581EB8135
:10392000FC8182819381820F931F9A838983EB812B
:10393000FC812081318189819A81821B930B9A833A
:103940008983EB81FC812481358189819A81821769
:10395000930750F0EB81FC812481358189819A8124
:10396000821B930B9A83898389819A810F900F9090
:103970000F900F90CF91DF9108950F93DF93CF9326
:10398000CDB7DEB729970FB6F894DEBF0FBECDBF17
:103990009A8389837C836B835E834D8338872F83EF
:1039A000098789819A8160E070E04FE050E00E94D1
:1039B0001B2AE981FA818B819C8195878487E98123
:1039C000FA818D819E8195838483E981FA818F813B
:1039D000988597838683E981FA81898586872996E8
:1039E0000FB6F894DEBF0FBECDBFCF91DF910F9120
:1039F00008958F929F92AF92BF92CF92DF92EF92F3
:103A0000FF920F931F93DF93CF93CDB7DEB76097ED
:103A10000FB6F894DEBF0FBECDBF9F838E8379872C
:103A200068875B874A873D872C870E87F88AEF86F1
:103A30008A859B850E941B089A83898389819A8144
:103A40000097B1F082E390E00E941B089D838C8375
:103A50008C819D81009739F0EC81FD8189819A816B
:103A6000908F878B07C089819A810E94710802C05C
:103A70001D821C828C819D810097E9F08A859B853F
:103A80009C0140E050E08E819F8168857985EC85BE
:103A9000FD85AF85B889AC80BD808F01EE846D0156
:103AA000882499240E94711D8C819D810E942D1E65
:103AB00081E08B8302C08FEF8B838B8160960FB682
:103AC000F894DEBF0FBECDBFCF91DF911F910F9154
:103AD000FF90EF90DF90CF90BF90AF909F908F902E
:103AE00008958F929F92AF92BF92CF92DF92EF9202
:103AF0000F931F93DF93CF93CDB7DEB764970FB6C5
:103B0000F894DEBF0FBECDBF9D838C837F836E8311
:103B1000288739874A875B871D870C87EE86D88A76
:103B2000CF86BA8AA98A9C8A8B8AE989FA892789E9
:103B3000308D888599850197820F931F9B838A8397
:103B40008E819F81009751F1198221C08981482F70
:103B500050E08981282F30E08E819F81FC01E20FA7
:103B6000F31F208189899A89840F951FFC0179961A
:103B700020838981282F30E08E819F81FC01E20F14
:103B8000F31F8081882331F089818F5F8983898148
:103B90008431E0F2E989FA8914A603C0E989FA8937
:103BA000118E8E85853010F084E08E87E989FA8940
:103BB0008E85868B89899A8902960E944A0A89890C
:103BC0009A890C960E944A0AE989FA8989899A8910
:103BD000918780878E85282F30E085E090E0821BDA
:103BE000930BE989FA8995878487E989FA89898914
:103BF0009A89938B828BE989FA8915A616A617A64E
:103C000010AAE989FA8911AA8A819B812C813D81B8
:103C10004C855D85B9010E946F0BE989FA89918312
:103C200080838F859889009731F0EF85F88989899D
:103C30009A899183808364960FB6F894DEBF0FBE95
:103C4000CDBFCF91DF911F910F91EF90DF90CF907B
:103C5000BF90AF909F908F900895DF93CF9300D047
:103C6000CDB7DEB79A8389830FB6F8940F9280910F
:103C7000BD068F5F8093BD068091BA069091BB060A
:103C8000009769F489819A819093BB068093BA0664
:103C90008091BD068130B9F40E94042514C0809142
:103CA000C106882381F4E091BA06F091BB0696899B
:103CB000E981FA818689891730F089819A81909308
:103CC000BB068093BA068091C5068F5F8093C506B8
:103CD000E981FA8196898091C006891728F4E981E3
:103CE000FA8186898093C006E981FA818689282F26
:103CF00030E0C901880F991F880F991F880F991FFD
:103D0000820F931FAC014553594F89819A819C01C1
:103D10002E5F3F4FCA01B9010E945A0A0F900FBE91
:103D20008091C106882361F0E091BA06F091BB064C
:103D30009689E981FA818689981710F40E942E0DE0
:103D40000F900F90CF91DF910895DF93CF9300D024
:103D500000D000D0CDB7DEB79C838B830FB6F8942C
:103D60000F928B819C81009739F48091BA069091D3
:103D7000BB069E838D8304C08B819C819E838D8333
:103D80008D819E819A83898389819A8102960E947E
:103D90000A0BE981FA8184899589009729F0898144
:103DA0009A810C960E940A0B8091C5068F5F8093C2
:103DB000C5062091BA063091BB0689819A81821787
:103DC000930781F489819A819C012E5F3F4F87E19F
:103DD00097E0B9010E945A0A8091BC068F5F8093D8
:103DE000BC060BC08091BD0681508093BD068981C1
:103DF0009A810E9474250E948A250F900FBE80919F
:103E0000C106882359F02091BA063091BB068981FA
:103E10009A818217930711F40E942E0D26960FB6F1
:103E2000F894DEBF0FBECDBFCF91DF910895DF9331
:103E3000CF9300D00F92CDB7DEB79B838A831982D0
:103E40008A819B81009751F00E94E4208A819B81A6
:103E500060E00E9496290E94F0208983898188234E
:103E600011F40E942E0D0F900F900F90CF91DF91C3
:103E70000895DF93CF9300D000D000D0CDB7DEB748
:103E80009C838B830FB6F8940F928B819C81009753
:103E900039F48091BA069091BB069E838D8304C04D
:103EA0008B819C819E838D838D819E819A83898362
:103EB00089819A8102960E940A0BE981FA8184899C
:103EC0009589009729F089819A810C960E940A0BA6
:103ED00089819A819C012E5F3F4F80E297E0B90172
:103EE0000E945A0AE981FA8181A9813019F4E98195
:103EF000FA8111AA0F900FBE8091C106882339F074
:103F00000FB6F8940F920E948A250F900FBE209151
:103F1000BA063091BB0689819A8182179307A1F472
:103F20008091C106882319F00E942E0D0DC090913A
:103F300020078091BD06981729F41092BB061092B5
:103F4000BA0602C00E94C52226960FB6F894DEBFBC
:103F50000FBECDBFCF91DF910895DF93CF9300D0F7
:103F600000D00F92CDB7DEB79D838C831B828C81EE
:103F70009D819A838983E981FA818285938527E0EF
:103F80008032920781F4E981FA818489958927E05A
:103F90008E30920741F0E981FA81848995890097F2
:103FA00011F481E08B838B810F900F900F900F9015
:103FB0000F90CF91DF910895DF93CF9300D000D081
:103FC000CDB7DEB79C838B838B819C819A83898359
:103FD0002091BA063091BB0689819A818217930796
:103FE00009F447C089819A81009709F442C00FB64D
:103FF000F8940F9289819A810E94AD1F8823B9F1AC
:1040000089819A8102960E940A0BE981FA81968938
:104010008091C006891728F4E981FA818689809306
:10402000C006E981FA818689282F30E0C901880F0E
:10403000991F880F991F880F991F820F931FAC013A
:104040004553594F89819A819C012E5F3F4FCA0188
:10405000B9010E945A0AE981FA819689E091BA066B
:10406000F091BB068689981710F00E942E0D0F90D4
:104070000FBE0F900F900F900F90CF91DF9108958A
:10408000DF93CF9300D000D000D0CDB7DEB79E83B2
:104090008D831C828D819E819B838A8319828A8174
:1040A0009B810E94AD1F882309F446C08091CA06F7
:1040B0008823C1F5EA81FB819689E091BA06F091E7
:1040C000BB068689981710F081E08C838A819B81DA
:1040D00002960E940A0BEA81FB8196898091C006B4
:1040E000891728F4EA81FB8186898093C006EA81DA
:1040F000FB818689282F30E0C901880F991F880F1E
:10410000991F880F991F820F931FAC014553594F78
:104110008A819B819C012E5F3F4FCA01B9010E9499
:104120005A0A0AC08A819B819C01245F3F4F8EE01E
:1041300097E0B9010E945A0A8C8126960FB6F8942E
:10414000DEBF0FBECDBFCF91DF910895EF92FF92FA
:104150000F93DF93CF930F92CDB7DEB78AEF94E240
:104160002CEC30E0E8ECF6E0B90146E950E020E064
:1041700030E000E07F010E94F91C89838981813051
:1041800081F4F8948FEF9FEF9093C7068093C60653
:1041900081E08093C1061092BF061092BE060E9475
:1041A000F20C0F90CF91DF910F91FF90EF90089557
:1041B000DF93CF93CDB7DEB7F8941092C1060E947B
:1041C000270DCF91DF910895DF93CF93CDB7DEB761
:1041D0008091CA068F5F8093CA06CF91DF910895C0
:1041E000DF93CF9300D000D0CDB7DEB71C821B8207
:1041F0001A820FB6F8940F928091CA06815080936C
:10420000CA068091CA06882309F073C08091BD0652
:10421000882309F46EC045C0E0911307F09114079C
:10422000868197819C838B838B819C810C960E94D5
:104230000A0B8B819C8102960E940A0BEB81FC8108
:1042400096898091C006891728F4EB81FC818689C4
:104250008093C006EB81FC818689282F30E0C9015C
:10426000880F991F880F991F880F991F820F931F1E
:10427000AC014553594F8B819C819C012E5F3F4F70
:10428000CA01B9010E945A0AEB81FC819689E0912A
:10429000BA06F091BB068689981718F081E08093E2
:1042A000C30680910E07882309F0B6CF8B819C81CD
:1042B000009711F00E948A258091C2068983898126
:1042C000882379F00E94E021882319F081E080930F
:1042D000C3068981815089838981882399F7109247
:1042E000C2068091C306882321F081E08A830E9460
:1042F0002E0D0F900FBE8A810F900F900F900F9090
:10430000CF91DF910895DF93CF9300D0CDB7DEB783
:104310000FB6F8940F928091BE069091BF069A83D3
:1043200089830F900FBE89819A810F900F90CF9152
:10433000DF910895DF93CF9300D00F92CDB7DEB712
:1043400019828091BE069091BF069B838A838A81E1
:104350009B810F900F900F90CF91DF910895DF9385
:10436000CF93CDB7DEB78091BD06CF91DF91089591
:10437000DF93CF9300D000D000D0CDB7DEB79C83C1
:104380008B838B819C81009739F48091BA06909140
:10439000BB069E838D8304C08B819C819E838D830D
:1043A0008D819E819A83898389819A8149962696F7
:1043B0000FB6F894DEBF0FBECDBFCF91DF91089549
:1043C000DF93CF93CDB7DEB729970FB6F894DEBF52
:1043D0000FBECDBF1D828091CA06882309F0C0C0E0
:1043E0008091BE069091BF0601969C838B838B8142
:1043F0009C819093BF068093BE068B819C81009721
:10440000D9F480910A0790910B079A838983809150
:104410000C0790910D0790930B0780930A078981F1
:104420009A8190930D0780930C078091C4068F5F4B
:104430008093C4060E948A252091C6063091C70643
:104440008B819C818217930708F471C0E0910A0761
:10445000F0910B078081882339F48FEF9FEF9093C1
:10446000C7068093C60663C0E0910A07F0910B0768
:104470000580F681E02D8681978199878887E88578
:10448000F985828193819F838E832B813C818E81EC
:104490009F812817390738F48E819F819093C70632
:1044A0008093C60644C08885998502960E940A0BAF
:1044B000E885F98584899589009729F0888599850B
:1044C0000C960E940A0BE885F98596898091C006B2
:1044D000891728F4E885F98586898093C006E885E0
:1044E000F9858689282F30E0C901880F991F880F28
:1044F000991F880F991F820F931FAC014553594F85
:10450000888599859C012E5F3F4FCA01B9010E94A1
:104510005A0AE885F9859689E091BA06F091BB06BA
:104520008689981708F492CF81E08D838FCFE09130
:10453000BA06F091BB068689282F30E0C901880FA2
:10454000991F880F991F880F991F820F931FFC01D5
:10455000E553F94F8081823040F081E08D8305C0C2
:104560008091C2068F5F8093C2068091C306882324
:1045700011F081E08D838D8129960FB6F894DEBF0E
:104580000FBECDBFCF91DF910895DF93CF9300D0C1
:104590000F92CDB7DEB78091CA06882321F081E063
:1045A0008093C30659C01092C3068091C0068B83C6
:1045B00003C08B8181508B838B81282F30E0C90110
:1045C000880F991F880F991F880F991F820F931FBB
:1045D000FC01E553F94F8081882359F38B81282F03
:1045E00030E0C901880F991F880F991F880F991F04
:1045F000820F931F8553994F9A838983E981FA81AA
:104600000180F281E02D82819381E981FA81928398
:104610008183E981FA812181328189819A8103969E
:104620002817390759F4E981FA810180F281E02DD8
:1046300082819381E981FA8192838183E981FA8180
:104640000180F281E02D868197819093BB06809353
:10465000BA068B818093C0060F900F900F90CF9178
:10466000DF910895DF93CF9300D000D0CDB7DEB7B0
:104670009A8389837C836B838091BA069091BB0671
:104680009C01245F3F4F89819A81B9010E949E0A53
:104690008B819C8161E00E9496290F900F900F9072
:1046A0000F90CF91DF910895DF93CF9300D000D08A
:1046B00000D0CDB7DEB79A8389837C836B835E831A
:1046C0004D83E091BA06F091BB068B819C81906886
:1046D000958784878091BA069091BB069C01245FE0
:1046E0003F4F89819A81B9010E945A0A8D819E812A
:1046F00061E00E94962926960FB6F894DEBF0FBEA1
:10470000CDBFCF91DF910895DF93CF9300D000D03C
:104710000F92CDB7DEB79D838C83EC81FD81058040
:10472000F681E02D868197819B838A838A819B8194
:104730000C960E940A0B8091CA06882361F58A8133
:104740009B8102960E940A0BEA81FB8196898091E7
:10475000C006891728F4EA81FB8186898093C00608
:10476000EA81FB818689282F30E0C901880F991FD3
:10477000880F991F880F991F820F931FAC01455313
:10478000594F8A819B819C012E5F3F4FCA01B9011D
:104790000E945A0A0AC08A819B819C01245F3F4F74
:1047A0008EE097E0B9010E945A0AEA81FB8196895E
:1047B000E091BA06F091BB068689891730F481E052
:1047C000898381E08093C30601C0198289810F909B
:1047D0000F900F900F900F90CF91DF910895DF937E
:1047E000CF9300D000D000D0CDB7DEB79C838B83B1
:1047F0007E836D838D819E819068EB81FC819183A6
:104800008083EB81FC81868197819A8389838B8168
:104810009C810E940A0B89819A8102960E940A0B50
:10482000E981FA8196898091C006891728F4E98187
:10483000FA8186898093C006E981FA818689282FCA
:1048400030E0C901880F991F880F991F880F991FA1
:10485000820F931FAC014553594F89819A819C0166
:104860002E5F3F4FCA01B9010E945A0AE981FA81BD
:104870009689E091BA06F091BB068689891718F4EB
:1048800081E08093C30626960FB6F894DEBF0FBE74
:10489000CDBFCF91DF910895DF93CF9300D0CDB7F7
:1048A000DEB79A8389830FB6F8940F928091C4067D
:1048B000E981FA8180838091BE069091BF06E981EB
:1048C000FA81928381830F900FBE0F900F90CF914A
:1048D000DF910895DF93CF9300D0CDB7DEB79A83F1
:1048E00089838091C406E981FA8180838091BE0624
:1048F0009091BF06E981FA81928381830F900F9096
:10490000CF91DF910895DF93CF93CDB7DEB729978D
:104910000FB6F894DEBF0FBECDBF9F838E8379871D
:1049200068870FB6F8940F928091BE069091BF06EB
:104930009C838B83EE81FF81218132818B819C81DD
:10494000821B930B9A838983E885F9858081918105
:104950002FEF8F3F920711F41D8236C0EE81FF8149
:1049600090818091C406981761F0EE81FF812181CA
:1049700032818B819C818217930718F081E08D83AF
:1049800023C0E885F9852081318189819A81821748
:104990009307A0F4E885F9852081318189819A8186
:1049A000A901481B590BCA01E885F98591838083C9
:1049B0008E819F810E946A241D8206C0E885F98548
:1049C0001182108281E08D830F900FBE8D81299618
:1049D0000FB6F894DEBF0FBECDBFCF91DF91089523
:1049E000DF93CF93CDB7DEB781E08093C306CF913D
:1049F000DF910895DF93CF9300D0CDB7DEB79A83D0
:104A000089830E944525FDCFDF93CF930F92CDB7C9
:104A1000DEB7198213C08981282F30E0C901880FC1
:104A2000991F880F991F880F991F820F931F855315
:104A3000994F0E94200A89818F5F898389818530FF
:104A400050F388EF96E00E94200A81E097E00E94F0
:104A5000200A8EE097E00E94200A87E197E00E94FA
:104A6000200A80E297E00E94200A88EF96E0909367
:104A70000B0780930A0781E097E090930D078093DE
:104A80000C070F90CF91DF910895DF93CF9300D063
:104A9000CDB7DEB720C00FB6F8940F92E0911C0797
:104AA000F0911D07868197819A83898389819A81F4
:104AB00002960E940A0B8091BD0681508093BD062C
:104AC0008091BC0681508093BC060F900FBE8981F7
:104AD0009A810E9474258091BC068823E1F60F908C
:104AE0000F90CF91DF910895DF93CF9300D0CDB792
:104AF000DEB79A838983E981FA818789908D0E9444
:104B0000710889819A810E9471080F900F90CF914E
:104B1000DF910895DF93CF9300D0CDB7DEB7E0915A
:104B20000A07F0910B078081882339F48FEF9FEFFC
:104B30009093C7068093C60613C0E0910A07F091D0
:104B40000B070580F681E02D868197819A83898302
:104B5000E981FA81828193819093C7068093C6068A
:104B60000F900F90CF91DF910895DF93CF9300D0F6
:104B7000CDB7DEB78091BA069091BB069A83898340
:104B800089819A810F900F90CF91DF910895DF93E3
:104B9000CF9300D0CDB7DEB7E091BA06F091BB0657
:104BA000848595859A838983A091BA06B091BB06C6
:104BB000E091BA06F091BB068689282F30E085E0A7
:104BC00090E0821B930B1D969C938E931C9789817A
:104BD0009A810F900F90CF91DF910895DF93CF933B
:104BE000CDB7DEB727970FB6F894DEBF0FBECDBFA7
:104BF0008D837F836E830FB6F8940F92E091BA068F
:104C0000F091BB0685A596A5A7A5B0A90097A1051B
:104C1000B10589F4E091BA06F091BB0681E081AB61
:104C20008E819F81009739F08E819F8161E00E9483
:104C300096290E942E0D0F900FBE0FB6F8940F927A
:104C4000E091BA06F091BB0685A596A5A7A5B0A9E7
:104C500089839A83AB83BC8389819A81AB81BC8130
:104C60000097A105B105D9F08D81882349F0E09125
:104C7000BA06F091BB0615A616A617A610AA0FC075
:104C8000E091BA06F091BB0689819A81AB81BC8123
:104C90000197A109B10985A796A7A7A7B0ABE09195
:104CA000BA06F091BB0611AA0F900FBE89819A81B6
:104CB000AB81BC81BC01CD0127960FB6F894DEBF55
:104CC0000FBECDBFCF91DF910895EF92FF920F936A
:104CD0001F93DF93CF93CDB7DEB72D970FB6F89420
:104CE000DEBF0FBECDBF6A837B838C839D832E8303
:104CF0003F83488759871B870A87FD86EC860FB656
:104D0000F8940F92E091BA06F091BB0681A9823027
:104D100049F1E091BA06F091BB0625A536A547A555
:104D200050A98A819B81AC81BD8180959095A09589
:104D3000B09582239323A423B52385A796A7A7A77D
:104D4000B0ABE091BA06F091BB0681E081AB8C85F7
:104D50009D85009739F08C859D8561E00E9496299C
:104D60000E942E0D0F900FBE0FB6F8940F928A85F9
:104D70009B85009771F0E091BA06F091BB0685A57E
:104D800096A5A7A5B0A9EA85FB8580839183A28318
:104D9000B383E091BA06F091BB0681A9823011F08D
:104DA00019821AC0E091BA06F091BB0625A536A576
:104DB00047A550A98E819F81A885B985809590953A
:104DC000A095B09582239323A423B52385A796A706
:104DD000A7A7B0AB81E08983E091BA06F091BB064A
:104DE00011AA0F900FBE89812D960FB6F894DEBFE1
:104DF0000FBECDBFCF91DF911F910F91FF90EF902C
:104E000008950F931F93DF93CF93CDB7DEB72F97FE
:104E10000FB6F894DEBF0FBECDBF9E838D834F8348
:104E2000588769877A872B871D870C8781E08A835B
:104E30008D819E819C838B830FB6F8940F928C8515
:104E40009D85009761F0EB81FC8185A596A5A7A5BE
:104E5000B0A9EC85FD8580839183A283B383EB8128
:104E6000FC8181A98983EB81FC8182E081AB8B8508
:104E7000282F30E03F872E878E859F8582309105D1
:104E800059F12E853F852330310534F48E859F8579
:104E90008130910561F04AC02E853F852330310570
:104EA00059F18E859F858430910589F13FC0EB8152
:104EB000FC8125A536A547A550A98F819885A98590
:104EC000BA85822B932BA42BB52BEB81FC8185A774
:104ED00096A7A7A7B0AB2AC0EB81FC8185A596A5B4
:104EE000A7A5B0A90196A11DB11DEB81FC8185A7E5
:104EF00096A7A7A7B0AB1AC0EB81FC818F819885DC
:104F0000A985BA8585A796A7A7A7B0AB0FC0898149
:104F1000823059F0EB81FC818F819885A985BA8513
:104F200085A796A7A7A7B0AB01C01A828981813057
:104F3000B9F58B819C8102960E940A0BEB81FC8162
:104F400096898091C006891728F4EB81FC818689B7
:104F50008093C006EB81FC818689282F30E0C9014F
:104F6000880F991F880F991F880F991F820F931F11
:104F7000AC014553594F8B819C819C012E5F3F4F63
:104F8000CA01B9010E945A0AEB81FC819689E0911D
:104F9000BA06F091BB068689891710F40E942E0D7F
:104FA0000F900FBE8A812F960FB6F894DEBF0FBE0A
:104FB000CDBFCF91DF911F910F910895EF92FF9296
:104FC0000F931F93DF93CF93CDB7DEB762970FB6E2
:104FD000F894DEBF0FBECDBF9F838E83488759876D
:104FE0006A877B872C871E870D87F88AEF8681E08A
:104FF0008A838E819F819D838C8319828D859E8576
:10500000009761F0EC81FD8185A596A5A7A5B0A9C3
:10501000ED85FE8580839183A283B383EC81FD813E
:1050200081A98B83EC81FD8182E081AB8C85282F67
:1050300030E03A8B298B89899A898230910559F120
:1050400029893A892330310534F489899A89813054
:10505000910561F04AC029893A892330310559F117
:1050600089899A898430910589F13FC0EC81FD815D
:1050700025A536A547A550A988859985AA85BB850C
:10508000822B932BA42BB52BEC81FD8185A796A7B2
:10509000A7A7B0AB2AC0EC81FD8185A596A5A7A5E1
:1050A000B0A90196A11DB11DEC81FD8185A796A730
:1050B000A7A7B0AB1AC0EC81FD8188859985AA8528
:1050C000BB8585A796A7A7A7B0AB0FC08B81823001
:1050D00059F0EC81FD8188859985AA85BB8585A7D6
:1050E00096A7A7A7B0AB01C01A828B81813009F0C7
:1050F0004FC08091CA06882361F58C819D810296FC
:105100000E940A0BEC81FD8196898091C006891767
:1051100028F4EC81FD8186898093C006EC81FD81B5
:105120008689282F30E0C901880F991F880F991FA1
:10513000880F991F820F931FAC014553594F8C81E3
:105140009D819C012E5F3F4FCA01B9010E945A0AFE
:105150000AC08C819D819C01245F3F4F8EE097E0C7
:10516000B9010E945A0AEC81FD819689E091BA0644
:10517000F091BB068689891758F48F859889009726
:1051800021F0EF85F88981E0808381E08093C30678
:105190008A8162960FB6F894DEBF0FBECDBFCF9165
:1051A000DF911F910F91FF90EF900895DF93CF93C0
:1051B000CDB7DEB728970FB6F894DEBF0FBECDBFD0
:1051C0009E838D8378876F838D819E819C838B8363
:1051D0001982EB81FC8181A98A83EB81FC8182E0C9
:1051E00081ABEB81FC8185A596A5A7A5B0A9019609
:1051F000A11DB11DEB81FC8185A796A7A7A7B0AB28
:105200008A81813009F04FC08091CA06882361F5F8
:105210008B819C8102960E940A0BEB81FC8196890E
:105220008091C006891728F4EB81FC8186898093E0
:10523000C006EB81FC818689282F30E0C901880FE8
:10524000991F880F991F880F991F820F931FAC0118
:105250004553594F8B819C819C012E5F3F4FCA0162
:10526000B9010E945A0A0AC08B819C819C01245F6B
:105270003F4F8EE097E0B9010E945A0AEB81FC8112
:105280009689E091BA06F091BB068689891758F491
:105290008F819885009721F0EF81F88581E08083E8
:1052A00081E08093C30628960FB6F894DEBF0FBE48
:1052B000CDBFCF91DF910895DF93CF93CDB7DEB708
:1052C00027970FB6F894DEBF0FBECDBF9D838C83AA
:1052D0008C819D81009739F48091BA069091BB062C
:1052E0009F838E8304C08C819D819F838E838E815A
:1052F0009F819B838A830FB6F8940F92EA81FB818A
:1053000081A9823031F4EA81FB8111AA81E089838D
:1053100001C019820F900FBE898127960FB6F894AD
:10532000DEBF0FBECDBFCF91DF910895DF93CF9346
:10533000CDB7DEB727970FB6F894DEBF0FBECDBF4F
:105340009E838D836F838091BE069091BF069A8362
:1053500089838091BA069091BB0602960E940A0B3F
:105360008D819E812FEF8F3F920781F48F8188235B
:1053700069F08091BA069091BB069C012E5F3F4F69
:1053800080E297E0B9010E945A0A43C029813A811C
:105390008D819E81820F931F9C838B83E091BA063F
:1053A000F091BB068B819C81938382832B813C810E
:1053B00089819A812817390770F480910C079091A0
:1053C0000D072091BA063091BB062E5F3F4FB90101
:1053D0000E949E0A1EC040910A0750910B078091BF
:1053E000BA069091BB069C012E5F3F4FCA01B901DE
:1053F0000E949E0A2091C6063091C7068B819C812F
:105400008217930730F48B819C819093C706809319
:10541000C60627960FB6F894DEBF0FBECDBFCF915C
:10542000DF910895FB01DC0102C001900D92415013
:105430005040D8F70895DC0101C06D9341505040B1
:08544000E0F70895F894FFCF96
:10544800496E69745461736B730050757368427563
:1054580074746F6E5F5461736B004C43445F5461A6
:10546800736B0053656E6448616C6C6F5F54617355
:105478006B004F766572205772697474656E2121CE
:1054880021210048656C6C6F204C43442021210089
:105498002020202020202020202020202020202004
:1054A8002000496E69745F5461736B0049444C4530
:0254B8000000F2
:00000001FF
